{
  "contractName": "TweetController",
  "abi": [
    {
      "inputs": [],
      "name": "ownerAddr",
      "outputs": [
        {
          "internalType": "address",
          "name": "",
          "type": "address"
        }
      ],
      "stateMutability": "view",
      "type": "function",
      "constant": true
    },
    {
      "inputs": [
        {
          "internalType": "address",
          "name": "_managerAddr",
          "type": "address"
        }
      ],
      "name": "setManagerAddr",
      "outputs": [],
      "stateMutability": "nonpayable",
      "type": "function"
    },
    {
      "inputs": [
        {
          "internalType": "address",
          "name": "_newOwner",
          "type": "address"
        }
      ],
      "name": "transferOwnership",
      "outputs": [],
      "stateMutability": "nonpayable",
      "type": "function"
    },
    {
      "inputs": [
        {
          "internalType": "string",
          "name": "_text",
          "type": "string"
        }
      ],
      "name": "createTweet",
      "outputs": [
        {
          "internalType": "uint256",
          "name": "",
          "type": "uint256"
        }
      ],
      "stateMutability": "nonpayable",
      "type": "function"
    }
  ],
  "bytecode": "0x608060405234801561001057600080fd5b50336000806101000a81548173ffffffffffffffffffffffffffffffffffffffff021916908373ffffffffffffffffffffffffffffffffffffffff1602179055506109d6806100606000396000f3fe608060405234801561001057600080fd5b506004361061004c5760003560e01c80637978b231146100515780637c9cd2bc1461006d5780639c675eaa1461009d578063f2fde38b146100bb575b600080fd5b61006b6004803603810190610066919061055b565b6100d7565b005b610087600480360381019061008291906106ce565b610173565b6040516100949190610730565b60405180910390f35b6100a56103f0565b6040516100b2919061075a565b60405180910390f35b6100d560048036038101906100d0919061055b565b610414565b005b60008054906101000a900473ffffffffffffffffffffffffffffffffffffffff1673ffffffffffffffffffffffffffffffffffffffff163373ffffffffffffffffffffffffffffffffffffffff161461012f57600080fd5b80600160006101000a81548173ffffffffffffffffffffffffffffffffffffffff021916908373ffffffffffffffffffffffffffffffffffffffff16021790555050565b600080600160009054906101000a900473ffffffffffffffffffffffffffffffffffffffff16905060008173ffffffffffffffffffffffffffffffffffffffff1663bf40fac16040518163ffffffff1660e01b81526004016101d4906107d2565b60206040518083038186803b1580156101ec57600080fd5b505afa158015610200573d6000803e3d6000fd5b505050506040513d601f19601f820116820180604052508101906102249190610807565b9050600081905060008173ffffffffffffffffffffffffffffffffffffffff166382d38954336040518263ffffffff1660e01b8152600401610266919061075a565b60206040518083038186803b15801561027e57600080fd5b505afa158015610292573d6000803e3d6000fd5b505050506040513d601f19601f820116820180604052508101906102b69190610860565b905060008114156102c657600080fd5b60008473ffffffffffffffffffffffffffffffffffffffff1663bf40fac16040518163ffffffff1660e01b81526004016102ff906108d9565b60206040518083038186803b15801561031757600080fd5b505afa15801561032b573d6000803e3d6000fd5b505050506040513d601f19601f8201168201806040525081019061034f9190610807565b905060008190508073ffffffffffffffffffffffffffffffffffffffff16637cc82f20848a6040518363ffffffff1660e01b8152600401610391929190610970565b602060405180830381600087803b1580156103ab57600080fd5b505af11580156103bf573d6000803e3d6000fd5b505050506040513d601f19601f820116820180604052508101906103e39190610860565b9650505050505050919050565b60008054906101000a900473ffffffffffffffffffffffffffffffffffffffff1681565b60008054906101000a900473ffffffffffffffffffffffffffffffffffffffff1673ffffffffffffffffffffffffffffffffffffffff163373ffffffffffffffffffffffffffffffffffffffff161461046c57600080fd5b600073ffffffffffffffffffffffffffffffffffffffff168173ffffffffffffffffffffffffffffffffffffffff1614156104a657600080fd5b806000806101000a81548173ffffffffffffffffffffffffffffffffffffffff021916908373ffffffffffffffffffffffffffffffffffffffff16021790555050565b6000604051905090565b600080fd5b600080fd5b600073ffffffffffffffffffffffffffffffffffffffff82169050919050565b6000610528826104fd565b9050919050565b6105388161051d565b811461054357600080fd5b50565b6000813590506105558161052f565b92915050565b600060208284031215610571576105706104f3565b5b600061057f84828501610546565b91505092915050565b600080fd5b600080fd5b6000601f19601f8301169050919050565b7f4e487b7100000000000000000000000000000000000000000000000000000000600052604160045260246000fd5b6105db82610592565b810181811067ffffffffffffffff821117156105fa576105f96105a3565b5b80604052505050565b600061060d6104e9565b905061061982826105d2565b919050565b600067ffffffffffffffff821115610639576106386105a3565b5b61064282610592565b9050602081019050919050565b82818337600083830152505050565b600061067161066c8461061e565b610603565b90508281526020810184848401111561068d5761068c61058d565b5b61069884828561064f565b509392505050565b600082601f8301126106b5576106b4610588565b5b81356106c584826020860161065e565b91505092915050565b6000602082840312156106e4576106e36104f3565b5b600082013567ffffffffffffffff811115610702576107016104f8565b5b61070e848285016106a0565b91505092915050565b6000819050919050565b61072a81610717565b82525050565b60006020820190506107456000830184610721565b92915050565b6107548161051d565b82525050565b600060208201905061076f600083018461074b565b92915050565b600082825260208201905092915050565b7f5573657253746f72616765000000000000000000000000000000000000000000600082015250565b60006107bc600b83610775565b91506107c782610786565b602082019050919050565b600060208201905081810360008301526107eb816107af565b9050919050565b6000815190506108018161052f565b92915050565b60006020828403121561081d5761081c6104f3565b5b600061082b848285016107f2565b91505092915050565b61083d81610717565b811461084857600080fd5b50565b60008151905061085a81610834565b92915050565b600060208284031215610876576108756104f3565b5b60006108848482850161084b565b91505092915050565b7f547765657453746f726167650000000000000000000000000000000000000000600082015250565b60006108c3600c83610775565b91506108ce8261088d565b602082019050919050565b600060208201905081810360008301526108f2816108b6565b9050919050565b600081519050919050565b60005b83811015610922578082015181840152602081019050610907565b83811115610931576000848401525b50505050565b6000610942826108f9565b61094c8185610775565b935061095c818560208601610904565b61096581610592565b840191505092915050565b60006040820190506109856000830185610721565b81810360208301526109978184610937565b9050939250505056fea2646970667358221220b1ad414418dfdc8630830e0cc2cc82fc68a7db304aab72a1eaf212b592f7ddef64736f6c63430008090033",
  "immutableReferences": {},
  "source": "// SPDX-License-Identifier: MIT\r\npragma solidity >=0.4.22 <0.9.0;\r\n\r\nimport '../util/BaseController.sol';\r\nimport '../ContractManager.sol';\r\nimport './TweetStorage.sol';\r\nimport '../users/UserStorage.sol';\r\n\r\ncontract TweetController is BaseController {\r\n  function createTweet(string memory _text) public returns (uint256) {\r\n    ContractManager _manager = ContractManager(managerAddr);\r\n\r\n    address _userStorageAddr = _manager.getAddress('UserStorage');\r\n    UserStorage _userStorage = UserStorage(_userStorageAddr);\r\n\r\n    uint256 _userId = _userStorage.addresses(msg.sender);\r\n\r\n    require(_userId != 0);\r\n\r\n    address _tweetStorageAddr = _manager.getAddress('TweetStorage');\r\n    TweetStorage _tweetStorage = TweetStorage(_tweetStorageAddr);\r\n\r\n    return _tweetStorage.createTweet(_userId, _text);\r\n  }\r\n}\r\n",
  "sourcePath": "C:/Users/Karan/Code/EthereumProjects/twitter-dapp-2/smart-contracts/contracts/tweets/TweetController.sol",
  "compiler": {
    "name": "solc",
    "version": "0.8.9+commit.e5eed63a.Emscripten.clang"
  },
  "schemaVersion": "3.4.1",
  "updatedAt": "2022-04-04T19:00:53.381Z",
  "networkType": "ethereum",
  "devdoc": {
    "kind": "dev",
    "methods": {},
    "version": 1
  },
  "userdoc": {
    "kind": "user",
    "methods": {},
    "version": 1
  }
}