{
  "contractName": "TweetStorage",
  "abi": [
    {
      "inputs": [],
      "name": "controllerAddr",
      "outputs": [
        {
          "internalType": "address",
          "name": "",
          "type": "address"
        }
      ],
      "stateMutability": "view",
      "type": "function",
      "constant": true
    },
    {
      "inputs": [],
      "name": "ownerAddr",
      "outputs": [
        {
          "internalType": "address",
          "name": "",
          "type": "address"
        }
      ],
      "stateMutability": "view",
      "type": "function",
      "constant": true
    },
    {
      "inputs": [
        {
          "internalType": "address",
          "name": "_controllerAddr",
          "type": "address"
        }
      ],
      "name": "setControllerAddr",
      "outputs": [],
      "stateMutability": "nonpayable",
      "type": "function"
    },
    {
      "inputs": [
        {
          "internalType": "address",
          "name": "_newOwner",
          "type": "address"
        }
      ],
      "name": "transferOwnership",
      "outputs": [],
      "stateMutability": "nonpayable",
      "type": "function"
    },
    {
      "inputs": [
        {
          "internalType": "uint256",
          "name": "",
          "type": "uint256"
        }
      ],
      "name": "tweetIds",
      "outputs": [
        {
          "internalType": "uint256",
          "name": "",
          "type": "uint256"
        }
      ],
      "stateMutability": "view",
      "type": "function",
      "constant": true
    },
    {
      "inputs": [
        {
          "internalType": "uint256",
          "name": "",
          "type": "uint256"
        }
      ],
      "name": "tweets",
      "outputs": [
        {
          "internalType": "uint256",
          "name": "id",
          "type": "uint256"
        },
        {
          "internalType": "string",
          "name": "text",
          "type": "string"
        },
        {
          "internalType": "uint256",
          "name": "userId",
          "type": "uint256"
        },
        {
          "internalType": "uint256",
          "name": "postedAt",
          "type": "uint256"
        }
      ],
      "stateMutability": "view",
      "type": "function",
      "constant": true
    },
    {
      "inputs": [
        {
          "internalType": "uint256",
          "name": "_userId",
          "type": "uint256"
        },
        {
          "internalType": "string",
          "name": "_text",
          "type": "string"
        }
      ],
      "name": "createTweet",
      "outputs": [
        {
          "internalType": "uint256",
          "name": "",
          "type": "uint256"
        }
      ],
      "stateMutability": "nonpayable",
      "type": "function"
    },
    {
      "inputs": [
        {
          "internalType": "uint256",
          "name": "_userId",
          "type": "uint256"
        }
      ],
      "name": "getTweetIdsFromUser",
      "outputs": [
        {
          "internalType": "uint256[]",
          "name": "",
          "type": "uint256[]"
        }
      ],
      "stateMutability": "view",
      "type": "function",
      "constant": true
    },
    {
      "inputs": [],
      "name": "getNumTweets",
      "outputs": [
        {
          "internalType": "uint256",
          "name": "_numTweets",
          "type": "uint256"
        }
      ],
      "stateMutability": "view",
      "type": "function",
      "constant": true
    }
  ],
  "bytecode": "0x6080604052600060055534801561001557600080fd5b50336000806101000a81548173ffffffffffffffffffffffffffffffffffffffff021916908373ffffffffffffffffffffffffffffffffffffffff160217905550610cb6806100656000396000f3fe608060405234801561001057600080fd5b50600436106100935760003560e01c80639c675eaa116100665780639c675eaa14610144578063e8d857b014610162578063eb4fdc3f14610195578063ee255c57146101b3578063f2fde38b146101d157610093565b806317edf66d14610098578063317aae1b146100c85780636981fa7d146100f85780637cc82f2014610114575b600080fd5b6100b260048036038101906100ad9190610745565b6101ed565b6040516100bf9190610781565b60405180910390f35b6100e260048036038101906100dd9190610745565b610211565b6040516100ef919061085a565b60405180910390f35b610112600480360381019061010d91906108da565b61027c565b005b61012e60048036038101906101299190610a4d565b610318565b60405161013b9190610781565b60405180910390f35b61014c610474565b6040516101599190610ab8565b60405180910390f35b61017c60048036038101906101779190610745565b610498565b60405161018c9493929190610b5b565b60405180910390f35b61019d610550565b6040516101aa9190610781565b60405180910390f35b6101bb61055d565b6040516101c89190610ab8565b60405180910390f35b6101eb60048036038101906101e691906108da565b610583565b005b600481815481106101fd57600080fd5b906000526020600020016000915090505481565b60606003600083815260200190815260200160002080548060200260200160405190810160405280929190818152602001828054801561027057602002820191906000526020600020905b81548152602001906001019080831161025c575b50505050509050919050565b60008054906101000a900473ffffffffffffffffffffffffffffffffffffffff1673ffffffffffffffffffffffffffffffffffffffff163373ffffffffffffffffffffffffffffffffffffffff16146102d457600080fd5b80600160006101000a81548173ffffffffffffffffffffffffffffffffffffffff021916908373ffffffffffffffffffffffffffffffffffffffff16021790555050565b6000600160009054906101000a900473ffffffffffffffffffffffffffffffffffffffff1673ffffffffffffffffffffffffffffffffffffffff163373ffffffffffffffffffffffffffffffffffffffff161461037457600080fd5b6005600081548092919061038790610bd6565b919050555060405180608001604052806005548152602001838152602001848152602001428152506002600060055481526020019081526020016000206000820151816000015560208201518160010190805190602001906103ea929190610658565b50604082015181600201556060820151816003015590505060036000848152602001908152602001600020600554908060018154018082558091505060019003906000526020600020016000909190919091505560046005549080600181540180825580915050600190039060005260206000200160009091909190915055600554905092915050565b60008054906101000a900473ffffffffffffffffffffffffffffffffffffffff1681565b60026020528060005260406000206000915090508060000154908060010180546104c190610c4e565b80601f01602080910402602001604051908101604052809291908181526020018280546104ed90610c4e565b801561053a5780601f1061050f5761010080835404028352916020019161053a565b820191906000526020600020905b81548152906001019060200180831161051d57829003601f168201915b5050505050908060020154908060030154905084565b6000600480549050905090565b600160009054906101000a900473ffffffffffffffffffffffffffffffffffffffff1681565b60008054906101000a900473ffffffffffffffffffffffffffffffffffffffff1673ffffffffffffffffffffffffffffffffffffffff163373ffffffffffffffffffffffffffffffffffffffff16146105db57600080fd5b600073ffffffffffffffffffffffffffffffffffffffff168173ffffffffffffffffffffffffffffffffffffffff16141561061557600080fd5b806000806101000a81548173ffffffffffffffffffffffffffffffffffffffff021916908373ffffffffffffffffffffffffffffffffffffffff16021790555050565b82805461066490610c4e565b90600052602060002090601f01602090048101928261068657600085556106cd565b82601f1061069f57805160ff19168380011785556106cd565b828001600101855582156106cd579182015b828111156106cc5782518255916020019190600101906106b1565b5b5090506106da91906106de565b5090565b5b808211156106f75760008160009055506001016106df565b5090565b6000604051905090565b600080fd5b600080fd5b6000819050919050565b6107228161070f565b811461072d57600080fd5b50565b60008135905061073f81610719565b92915050565b60006020828403121561075b5761075a610705565b5b600061076984828501610730565b91505092915050565b61077b8161070f565b82525050565b60006020820190506107966000830184610772565b92915050565b600081519050919050565b600082825260208201905092915050565b6000819050602082019050919050565b6107d18161070f565b82525050565b60006107e383836107c8565b60208301905092915050565b6000602082019050919050565b60006108078261079c565b61081181856107a7565b935061081c836107b8565b8060005b8381101561084d57815161083488826107d7565b975061083f836107ef565b925050600181019050610820565b5085935050505092915050565b6000602082019050818103600083015261087481846107fc565b905092915050565b600073ffffffffffffffffffffffffffffffffffffffff82169050919050565b60006108a78261087c565b9050919050565b6108b78161089c565b81146108c257600080fd5b50565b6000813590506108d4816108ae565b92915050565b6000602082840312156108f0576108ef610705565b5b60006108fe848285016108c5565b91505092915050565b600080fd5b600080fd5b6000601f19601f8301169050919050565b7f4e487b7100000000000000000000000000000000000000000000000000000000600052604160045260246000fd5b61095a82610911565b810181811067ffffffffffffffff8211171561097957610978610922565b5b80604052505050565b600061098c6106fb565b90506109988282610951565b919050565b600067ffffffffffffffff8211156109b8576109b7610922565b5b6109c182610911565b9050602081019050919050565b82818337600083830152505050565b60006109f06109eb8461099d565b610982565b905082815260208101848484011115610a0c57610a0b61090c565b5b610a178482856109ce565b509392505050565b600082601f830112610a3457610a33610907565b5b8135610a448482602086016109dd565b91505092915050565b60008060408385031215610a6457610a63610705565b5b6000610a7285828601610730565b925050602083013567ffffffffffffffff811115610a9357610a9261070a565b5b610a9f85828601610a1f565b9150509250929050565b610ab28161089c565b82525050565b6000602082019050610acd6000830184610aa9565b92915050565b600081519050919050565b600082825260208201905092915050565b60005b83811015610b0d578082015181840152602081019050610af2565b83811115610b1c576000848401525b50505050565b6000610b2d82610ad3565b610b378185610ade565b9350610b47818560208601610aef565b610b5081610911565b840191505092915050565b6000608082019050610b706000830187610772565b8181036020830152610b828186610b22565b9050610b916040830185610772565b610b9e6060830184610772565b95945050505050565b7f4e487b7100000000000000000000000000000000000000000000000000000000600052601160045260246000fd5b6000610be18261070f565b91507fffffffffffffffffffffffffffffffffffffffffffffffffffffffffffffffff821415610c1457610c13610ba7565b5b600182019050919050565b7f4e487b7100000000000000000000000000000000000000000000000000000000600052602260045260246000fd5b60006002820490506001821680610c6657607f821691505b60208210811415610c7a57610c79610c1f565b5b5091905056fea264697066735822122050c35224c99a8838a1fa6077d48c776cd3782b3d71d3f01d0e87202e21ffe3be64736f6c63430008090033",
  "immutableReferences": {},
  "source": "// SPDX-License-Identifier: MIT\r\npragma solidity >=0.4.22 <0.9.0;\r\n\r\nimport '../util/BaseStorage.sol';\r\n\r\ncontract TweetStorage is BaseStorage {\r\n  mapping(uint256 => Tweet) public tweets;\r\n  mapping(uint256 => uint256[]) userTweetIds;\r\n  uint256[] public tweetIds;\r\n\r\n  struct Tweet {\r\n    uint256 id;\r\n    string text;\r\n    uint256 userId;\r\n    uint256 postedAt;\r\n  }\r\n\r\n  uint256 latestTweetId = 0;\r\n\r\n  function createTweet(uint256 _userId, string memory _text)\r\n    public\r\n    onlyController\r\n    returns (uint256)\r\n  {\r\n    latestTweetId++;\r\n\r\n    tweets[latestTweetId] = Tweet(\r\n      latestTweetId,\r\n      _text,\r\n      _userId,\r\n      block.timestamp\r\n    );\r\n    userTweetIds[_userId].push(latestTweetId);\r\n    tweetIds.push(latestTweetId);\r\n\r\n    return latestTweetId;\r\n  }\r\n\r\n  function getTweetIdsFromUser(uint256 _userId)\r\n    public\r\n    view\r\n    returns (uint256[] memory)\r\n  {\r\n    return userTweetIds[_userId];\r\n  }\r\n\r\n  function getNumTweets() public view returns (uint256 _numTweets) {\r\n    return tweetIds.length;\r\n  }\r\n}\r\n",
  "sourcePath": "C:/Users/Karan/Code/EthereumProjects/twitter-dapp-2/smart-contracts/contracts/tweets/TweetStorage.sol",
  "compiler": {
    "name": "solc",
    "version": "0.8.9+commit.e5eed63a.Emscripten.clang"
  },
  "schemaVersion": "3.4.1",
  "updatedAt": "2022-04-04T19:00:53.462Z",
  "networkType": "ethereum",
  "devdoc": {
    "kind": "dev",
    "methods": {},
    "version": 1
  },
  "userdoc": {
    "kind": "user",
    "methods": {},
    "version": 1
  }
}