{
  "contractName": "UserStorage",
  "abi": [
    {
      "inputs": [
        {
          "internalType": "address",
          "name": "",
          "type": "address"
        }
      ],
      "name": "addresses",
      "outputs": [
        {
          "internalType": "uint256",
          "name": "",
          "type": "uint256"
        }
      ],
      "stateMutability": "view",
      "type": "function",
      "constant": true
    },
    {
      "inputs": [],
      "name": "controllerAddr",
      "outputs": [
        {
          "internalType": "address",
          "name": "",
          "type": "address"
        }
      ],
      "stateMutability": "view",
      "type": "function",
      "constant": true
    },
    {
      "inputs": [],
      "name": "ownerAddr",
      "outputs": [
        {
          "internalType": "address",
          "name": "",
          "type": "address"
        }
      ],
      "stateMutability": "view",
      "type": "function",
      "constant": true
    },
    {
      "inputs": [
        {
          "internalType": "uint256",
          "name": "",
          "type": "uint256"
        }
      ],
      "name": "profiles",
      "outputs": [
        {
          "internalType": "uint256",
          "name": "id",
          "type": "uint256"
        },
        {
          "internalType": "bytes32",
          "name": "username",
          "type": "bytes32"
        },
        {
          "internalType": "bytes32",
          "name": "firstName",
          "type": "bytes32"
        },
        {
          "internalType": "bytes32",
          "name": "lastName",
          "type": "bytes32"
        },
        {
          "internalType": "string",
          "name": "gravatarEmail",
          "type": "string"
        },
        {
          "internalType": "string",
          "name": "bio",
          "type": "string"
        }
      ],
      "stateMutability": "view",
      "type": "function",
      "constant": true
    },
    {
      "inputs": [
        {
          "internalType": "address",
          "name": "_controllerAddr",
          "type": "address"
        }
      ],
      "name": "setControllerAddr",
      "outputs": [],
      "stateMutability": "nonpayable",
      "type": "function"
    },
    {
      "inputs": [
        {
          "internalType": "address",
          "name": "_newOwner",
          "type": "address"
        }
      ],
      "name": "transferOwnership",
      "outputs": [],
      "stateMutability": "nonpayable",
      "type": "function"
    },
    {
      "inputs": [
        {
          "internalType": "bytes32",
          "name": "",
          "type": "bytes32"
        }
      ],
      "name": "usernames",
      "outputs": [
        {
          "internalType": "uint256",
          "name": "",
          "type": "uint256"
        }
      ],
      "stateMutability": "view",
      "type": "function",
      "constant": true
    },
    {
      "inputs": [
        {
          "internalType": "address",
          "name": "_address",
          "type": "address"
        },
        {
          "internalType": "bytes32",
          "name": "_username",
          "type": "bytes32"
        },
        {
          "internalType": "bytes32",
          "name": "_firstName",
          "type": "bytes32"
        },
        {
          "internalType": "bytes32",
          "name": "_lastName",
          "type": "bytes32"
        },
        {
          "internalType": "string",
          "name": "_gravatarEmail",
          "type": "string"
        },
        {
          "internalType": "string",
          "name": "_bio",
          "type": "string"
        }
      ],
      "name": "createUser",
      "outputs": [
        {
          "internalType": "uint256",
          "name": "",
          "type": "uint256"
        }
      ],
      "stateMutability": "nonpayable",
      "type": "function"
    }
  ],
  "bytecode": "0x6080604052600060055534801561001557600080fd5b50336000806101000a81548173ffffffffffffffffffffffffffffffffffffffff021916908373ffffffffffffffffffffffffffffffffffffffff160217905550610d05806100656000396000f3fe608060405234801561001057600080fd5b50600436106100885760003560e01c8063d399e63d1161005b578063d399e63d1461012c578063ec4d88d71461015c578063ee255c571461018c578063f2fde38b146101aa57610088565b80636981fa7d1461008d57806382d38954146100a95780639c675eaa146100d9578063c36fe3d6146100f7575b600080fd5b6100a760048036038101906100a2919061079e565b6101c6565b005b6100c360048036038101906100be919061079e565b610262565b6040516100d091906107e4565b60405180910390f35b6100e161027a565b6040516100ee919061080e565b60405180910390f35b610111600480360381019061010c9190610855565b61029e565b60405161012396959493929190610934565b60405180910390f35b61014660048036038101906101419190610b04565b6103ea565b60405161015391906107e4565b60405180910390f35b61017660048036038101906101719190610bc9565b610576565b60405161018391906107e4565b60405180910390f35b61019461058e565b6040516101a1919061080e565b60405180910390f35b6101c460048036038101906101bf919061079e565b6105b4565b005b60008054906101000a900473ffffffffffffffffffffffffffffffffffffffff1673ffffffffffffffffffffffffffffffffffffffff163373ffffffffffffffffffffffffffffffffffffffff161461021e57600080fd5b80600160006101000a81548173ffffffffffffffffffffffffffffffffffffffff021916908373ffffffffffffffffffffffffffffffffffffffff16021790555050565b60036020528060005260406000206000915090505481565b60008054906101000a900473ffffffffffffffffffffffffffffffffffffffff1681565b60026020528060005260406000206000915090508060000154908060010154908060020154908060030154908060040180546102d990610c25565b80601f016020809104026020016040519081016040528092919081815260200182805461030590610c25565b80156103525780601f1061032757610100808354040283529160200191610352565b820191906000526020600020905b81548152906001019060200180831161033557829003601f168201915b50505050509080600501805461036790610c25565b80601f016020809104026020016040519081016040528092919081815260200182805461039390610c25565b80156103e05780601f106103b5576101008083540402835291602001916103e0565b820191906000526020600020905b8154815290600101906020018083116103c357829003601f168201915b5050505050905086565b6000600160009054906101000a900473ffffffffffffffffffffffffffffffffffffffff1673ffffffffffffffffffffffffffffffffffffffff163373ffffffffffffffffffffffffffffffffffffffff161461044657600080fd5b6005600081548092919061045990610c86565b91905055506040518060c001604052806005548152602001878152602001868152602001858152602001848152602001838152506002600060055481526020019081526020016000206000820151816000015560208201518160010155604082015181600201556060820151816003015560808201518160040190805190602001906104e6929190610689565b5060a0820151816005019080519060200190610503929190610689565b50905050600554600360008973ffffffffffffffffffffffffffffffffffffffff1673ffffffffffffffffffffffffffffffffffffffff16815260200190815260200160002081905550600554600460008881526020019081526020016000208190555060055490509695505050505050565b60046020528060005260406000206000915090505481565b600160009054906101000a900473ffffffffffffffffffffffffffffffffffffffff1681565b60008054906101000a900473ffffffffffffffffffffffffffffffffffffffff1673ffffffffffffffffffffffffffffffffffffffff163373ffffffffffffffffffffffffffffffffffffffff161461060c57600080fd5b600073ffffffffffffffffffffffffffffffffffffffff168173ffffffffffffffffffffffffffffffffffffffff16141561064657600080fd5b806000806101000a81548173ffffffffffffffffffffffffffffffffffffffff021916908373ffffffffffffffffffffffffffffffffffffffff16021790555050565b82805461069590610c25565b90600052602060002090601f0160209004810192826106b757600085556106fe565b82601f106106d057805160ff19168380011785556106fe565b828001600101855582156106fe579182015b828111156106fd5782518255916020019190600101906106e2565b5b50905061070b919061070f565b5090565b5b80821115610728576000816000905550600101610710565b5090565b6000604051905090565b600080fd5b600080fd5b600073ffffffffffffffffffffffffffffffffffffffff82169050919050565b600061076b82610740565b9050919050565b61077b81610760565b811461078657600080fd5b50565b60008135905061079881610772565b92915050565b6000602082840312156107b4576107b3610736565b5b60006107c284828501610789565b91505092915050565b6000819050919050565b6107de816107cb565b82525050565b60006020820190506107f960008301846107d5565b92915050565b61080881610760565b82525050565b600060208201905061082360008301846107ff565b92915050565b610832816107cb565b811461083d57600080fd5b50565b60008135905061084f81610829565b92915050565b60006020828403121561086b5761086a610736565b5b600061087984828501610840565b91505092915050565b6000819050919050565b61089581610882565b82525050565b600081519050919050565b600082825260208201905092915050565b60005b838110156108d55780820151818401526020810190506108ba565b838111156108e4576000848401525b50505050565b6000601f19601f8301169050919050565b60006109068261089b565b61091081856108a6565b93506109208185602086016108b7565b610929816108ea565b840191505092915050565b600060c08201905061094960008301896107d5565b610956602083018861088c565b610963604083018761088c565b610970606083018661088c565b818103608083015261098281856108fb565b905081810360a083015261099681846108fb565b9050979650505050505050565b6109ac81610882565b81146109b757600080fd5b50565b6000813590506109c9816109a3565b92915050565b600080fd5b600080fd5b7f4e487b7100000000000000000000000000000000000000000000000000000000600052604160045260246000fd5b610a11826108ea565b810181811067ffffffffffffffff82111715610a3057610a2f6109d9565b5b80604052505050565b6000610a4361072c565b9050610a4f8282610a08565b919050565b600067ffffffffffffffff821115610a6f57610a6e6109d9565b5b610a78826108ea565b9050602081019050919050565b82818337600083830152505050565b6000610aa7610aa284610a54565b610a39565b905082815260208101848484011115610ac357610ac26109d4565b5b610ace848285610a85565b509392505050565b600082601f830112610aeb57610aea6109cf565b5b8135610afb848260208601610a94565b91505092915050565b60008060008060008060c08789031215610b2157610b20610736565b5b6000610b2f89828a01610789565b9650506020610b4089828a016109ba565b9550506040610b5189828a016109ba565b9450506060610b6289828a016109ba565b935050608087013567ffffffffffffffff811115610b8357610b8261073b565b5b610b8f89828a01610ad6565b92505060a087013567ffffffffffffffff811115610bb057610baf61073b565b5b610bbc89828a01610ad6565b9150509295509295509295565b600060208284031215610bdf57610bde610736565b5b6000610bed848285016109ba565b91505092915050565b7f4e487b7100000000000000000000000000000000000000000000000000000000600052602260045260246000fd5b60006002820490506001821680610c3d57607f821691505b60208210811415610c5157610c50610bf6565b5b50919050565b7f4e487b7100000000000000000000000000000000000000000000000000000000600052601160045260246000fd5b6000610c91826107cb565b91507fffffffffffffffffffffffffffffffffffffffffffffffffffffffffffffffff821415610cc457610cc3610c57565b5b60018201905091905056fea2646970667358221220ffbb43456a18dfa3d291eb234ed8a0246d78c56b91a04277775b8868e765faa464736f6c63430008090033",
  "immutableReferences": {},
  "source": "// SPDX-License-Identifier: MIT\r\npragma solidity >=0.4.22 <0.9.0;\r\n\r\nimport '../util/BaseStorage.sol';\r\n\r\ncontract UserStorage is BaseStorage {\r\n  mapping(uint256 => Profile) public profiles;\r\n  mapping(address => uint256) public addresses;\r\n  mapping(bytes32 => uint256) public usernames;\r\n\r\n  struct Profile {\r\n    uint256 id;\r\n    bytes32 username;\r\n    bytes32 firstName;\r\n    bytes32 lastName;\r\n    string gravatarEmail;\r\n    string bio;\r\n  }\r\n\r\n  uint256 latestUserId = 0;\r\n\r\n  function createUser(\r\n    address _address,\r\n    bytes32 _username,\r\n    bytes32 _firstName,\r\n    bytes32 _lastName,\r\n    string memory _gravatarEmail,\r\n    string memory _bio\r\n  ) public onlyController returns (uint256) {\r\n    latestUserId++;\r\n\r\n    profiles[latestUserId] = Profile(\r\n      latestUserId,\r\n      _username,\r\n      _firstName,\r\n      _lastName,\r\n      _gravatarEmail,\r\n      _bio\r\n    );\r\n\r\n    addresses[_address] = latestUserId;\r\n    usernames[_username] = latestUserId;\r\n\r\n    return latestUserId;\r\n  }\r\n}\r\n",
  "sourcePath": "C:/Users/Karan/Code/EthereumProjects/twitter-dapp-2/smart-contracts/contracts/users/UserStorage.sol",
  "compiler": {
    "name": "solc",
    "version": "0.8.9+commit.e5eed63a.Emscripten.clang"
  },
  "schemaVersion": "3.4.1",
  "updatedAt": "2022-04-04T18:59:51.847Z",
  "networkType": "ethereum",
  "devdoc": {
    "kind": "dev",
    "methods": {},
    "version": 1
  },
  "userdoc": {
    "kind": "user",
    "methods": {},
    "version": 1
  }
}