{
  "contractName": "BaseStorage",
  "abi": [
    {
      "inputs": [],
      "name": "controllerAddr",
      "outputs": [
        {
          "internalType": "address",
          "name": "",
          "type": "address"
        }
      ],
      "stateMutability": "view",
      "type": "function"
    },
    {
      "inputs": [],
      "name": "ownerAddr",
      "outputs": [
        {
          "internalType": "address",
          "name": "",
          "type": "address"
        }
      ],
      "stateMutability": "view",
      "type": "function"
    },
    {
      "inputs": [
        {
          "internalType": "address",
          "name": "_newOwner",
          "type": "address"
        }
      ],
      "name": "transferOwnership",
      "outputs": [],
      "stateMutability": "nonpayable",
      "type": "function"
    },
    {
      "inputs": [
        {
          "internalType": "address",
          "name": "_controllerAddr",
          "type": "address"
        }
      ],
      "name": "setControllerAddr",
      "outputs": [],
      "stateMutability": "nonpayable",
      "type": "function"
    }
  ],
  "bytecode": "0x608060405234801561001057600080fd5b50336000806101000a81548173ffffffffffffffffffffffffffffffffffffffff021916908373ffffffffffffffffffffffffffffffffffffffff160217905550610370806100606000396000f3fe608060405234801561001057600080fd5b506004361061004c5760003560e01c80636981fa7d146100515780639c675eaa1461006d578063ee255c571461008b578063f2fde38b146100a9575b600080fd5b61006b600480360381019061006691906102e3565b6100c5565b005b610075610161565b604051610082919061031f565b60405180910390f35b610093610185565b6040516100a0919061031f565b60405180910390f35b6100c360048036038101906100be91906102e3565b6101ab565b005b60008054906101000a900473ffffffffffffffffffffffffffffffffffffffff1673ffffffffffffffffffffffffffffffffffffffff163373ffffffffffffffffffffffffffffffffffffffff161461011d57600080fd5b80600160006101000a81548173ffffffffffffffffffffffffffffffffffffffff021916908373ffffffffffffffffffffffffffffffffffffffff16021790555050565b60008054906101000a900473ffffffffffffffffffffffffffffffffffffffff1681565b600160009054906101000a900473ffffffffffffffffffffffffffffffffffffffff1681565b60008054906101000a900473ffffffffffffffffffffffffffffffffffffffff1673ffffffffffffffffffffffffffffffffffffffff163373ffffffffffffffffffffffffffffffffffffffff161461020357600080fd5b600073ffffffffffffffffffffffffffffffffffffffff168173ffffffffffffffffffffffffffffffffffffffff16141561023d57600080fd5b806000806101000a81548173ffffffffffffffffffffffffffffffffffffffff021916908373ffffffffffffffffffffffffffffffffffffffff16021790555050565b600080fd5b600073ffffffffffffffffffffffffffffffffffffffff82169050919050565b60006102b082610285565b9050919050565b6102c0816102a5565b81146102cb57600080fd5b50565b6000813590506102dd816102b7565b92915050565b6000602082840312156102f9576102f8610280565b5b6000610307848285016102ce565b91505092915050565b610319816102a5565b82525050565b60006020820190506103346000830184610310565b9291505056fea26469706673582212200949fc57097ec1e852d2f30118eb0f188469da4d007210e914e87c94bbf71fb364736f6c63430008090033",
  "immutableReferences": {},
  "source": "// SPDX-License-Identifier: MIT\r\npragma solidity >=0.4.22 <0.9.0;\r\n\r\nimport './Owned.sol';\r\n\r\ncontract BaseStorage is Owned {\r\n  address public controllerAddr;\r\n\r\n  modifier onlyController() {\r\n    require(msg.sender == controllerAddr);\r\n    _;\r\n  }\r\n\r\n  function setControllerAddr(address _controllerAddr) public onlyOwner {\r\n    controllerAddr = _controllerAddr;\r\n  }\r\n}\r\n",
  "sourcePath": "C:\\Users\\Karan\\Code\\EthereumProjects\\twitter-dapp-2\\smart-contracts\\contracts\\util\\BaseStorage.sol",
  "compiler": {
    "name": "solc",
    "version": "0.8.9+commit.e5eed63a.Emscripten.clang"
  },
  "schemaVersion": "3.4.6",
  "updatedAt": "2022-04-05T07:15:55.231Z",
  "devdoc": {
    "kind": "dev",
    "methods": {},
    "version": 1
  },
  "userdoc": {
    "kind": "user",
    "methods": {},
    "version": 1
  }
}