{
  "contractName": "ContractManager",
  "abi": [
    {
      "inputs": [],
      "name": "ownerAddr",
      "outputs": [
        {
          "internalType": "address",
          "name": "",
          "type": "address"
        }
      ],
      "stateMutability": "view",
      "type": "function",
      "constant": true
    },
    {
      "inputs": [
        {
          "internalType": "address",
          "name": "_newOwner",
          "type": "address"
        }
      ],
      "name": "transferOwnership",
      "outputs": [],
      "stateMutability": "nonpayable",
      "type": "function"
    },
    {
      "inputs": [
        {
          "internalType": "string",
          "name": "_name",
          "type": "string"
        },
        {
          "internalType": "address",
          "name": "_address",
          "type": "address"
        }
      ],
      "name": "setAddress",
      "outputs": [],
      "stateMutability": "nonpayable",
      "type": "function"
    },
    {
      "inputs": [
        {
          "internalType": "string",
          "name": "_name",
          "type": "string"
        }
      ],
      "name": "getAddress",
      "outputs": [
        {
          "internalType": "address",
          "name": "",
          "type": "address"
        }
      ],
      "stateMutability": "view",
      "type": "function",
      "constant": true
    },
    {
      "inputs": [
        {
          "internalType": "string",
          "name": "_name",
          "type": "string"
        }
      ],
      "name": "deleteAddress",
      "outputs": [],
      "stateMutability": "nonpayable",
      "type": "function"
    }
  ],
  "bytecode": "0x608060405234801561001057600080fd5b50336000806101000a81548173ffffffffffffffffffffffffffffffffffffffff021916908373ffffffffffffffffffffffffffffffffffffffff16021790555061067c806100606000396000f3fe608060405234801561001057600080fd5b50600436106100575760003560e01c80639b2ea4bd1461005c5780639c675eaa14610078578063bf40fac114610096578063c193b42a146100c6578063f2fde38b146100e2575b600080fd5b610076600480360381019061007191906104b9565b6100fe565b005b61008061015f565b60405161008d9190610524565b60405180910390f35b6100b060048036038101906100ab919061053f565b610183565b6040516100bd9190610524565b60405180910390f35b6100e060048036038101906100db919061053f565b6101cb565b005b6100fc60048036038101906100f79190610588565b61022c565b005b8060018360405161010f919061062f565b908152602001604051809103902060006101000a81548173ffffffffffffffffffffffffffffffffffffffff021916908373ffffffffffffffffffffffffffffffffffffffff1602179055505050565b60008054906101000a900473ffffffffffffffffffffffffffffffffffffffff1681565b6000600182604051610195919061062f565b908152602001604051809103902060009054906101000a900473ffffffffffffffffffffffffffffffffffffffff169050919050565b60006001826040516101dd919061062f565b908152602001604051809103902060006101000a81548173ffffffffffffffffffffffffffffffffffffffff021916908373ffffffffffffffffffffffffffffffffffffffff16021790555050565b60008054906101000a900473ffffffffffffffffffffffffffffffffffffffff1673ffffffffffffffffffffffffffffffffffffffff163373ffffffffffffffffffffffffffffffffffffffff161461028457600080fd5b600073ffffffffffffffffffffffffffffffffffffffff168173ffffffffffffffffffffffffffffffffffffffff1614156102be57600080fd5b806000806101000a81548173ffffffffffffffffffffffffffffffffffffffff021916908373ffffffffffffffffffffffffffffffffffffffff16021790555050565b6000604051905090565b600080fd5b600080fd5b600080fd5b600080fd5b6000601f19601f8301169050919050565b7f4e487b7100000000000000000000000000000000000000000000000000000000600052604160045260246000fd5b6103688261031f565b810181811067ffffffffffffffff8211171561038757610386610330565b5b80604052505050565b600061039a610301565b90506103a6828261035f565b919050565b600067ffffffffffffffff8211156103c6576103c5610330565b5b6103cf8261031f565b9050602081019050919050565b82818337600083830152505050565b60006103fe6103f9846103ab565b610390565b90508281526020810184848401111561041a5761041961031a565b5b6104258482856103dc565b509392505050565b600082601f83011261044257610441610315565b5b81356104528482602086016103eb565b91505092915050565b600073ffffffffffffffffffffffffffffffffffffffff82169050919050565b60006104868261045b565b9050919050565b6104968161047b565b81146104a157600080fd5b50565b6000813590506104b38161048d565b92915050565b600080604083850312156104d0576104cf61030b565b5b600083013567ffffffffffffffff8111156104ee576104ed610310565b5b6104fa8582860161042d565b925050602061050b858286016104a4565b9150509250929050565b61051e8161047b565b82525050565b60006020820190506105396000830184610515565b92915050565b6000602082840312156105555761055461030b565b5b600082013567ffffffffffffffff81111561057357610572610310565b5b61057f8482850161042d565b91505092915050565b60006020828403121561059e5761059d61030b565b5b60006105ac848285016104a4565b91505092915050565b600081519050919050565b600081905092915050565b60005b838110156105e95780820151818401526020810190506105ce565b838111156105f8576000848401525b50505050565b6000610609826105b5565b61061381856105c0565b93506106238185602086016105cb565b80840191505092915050565b600061063b82846105fe565b91508190509291505056fea26469706673582212200899069eb01ac45f20d9c59ff0ed330e974b42db9966cd27e317c49fa0020a7164736f6c63430008090033",
  "immutableReferences": {},
  "source": "// SPDX-License-Identifier: MIT\r\npragma solidity >=0.4.22 <0.9.0;\r\n\r\nimport './util/Owned.sol';\r\n\r\ncontract ContractManager is Owned {\r\n  mapping(string => address) addresses;\r\n\r\n  function setAddress(string memory _name, address _address) public {\r\n    addresses[_name] = _address;\r\n  }\r\n\r\n  function getAddress(string memory _name) public view returns (address) {\r\n    return addresses[_name];\r\n  }\r\n\r\n  function deleteAddress(string memory _name) public {\r\n    addresses[_name] = address(0);\r\n  }\r\n}\r\n",
  "sourcePath": "C:\\Users\\Karan\\Code\\EthereumProjects\\twitter-dapp-2\\smart-contracts\\contracts\\ContractManager.sol",
  "compiler": {
    "name": "solc",
    "version": "0.8.9+commit.e5eed63a.Emscripten.clang"
  },
  "schemaVersion": "3.4.6",
  "updatedAt": "2022-04-05T07:22:04.971Z",
  "networkType": "ethereum",
  "devdoc": {
    "kind": "dev",
    "methods": {},
    "version": 1
  },
  "userdoc": {
    "kind": "user",
    "methods": {},
    "version": 1
  }
}