{
  "contractName": "UserStorage",
  "abi": [
    {
      "inputs": [],
      "name": "controllerAddr",
      "outputs": [
        {
          "internalType": "address",
          "name": "",
          "type": "address"
        }
      ],
      "stateMutability": "view",
      "type": "function",
      "constant": true
    },
    {
      "inputs": [],
      "name": "ownerAddr",
      "outputs": [
        {
          "internalType": "address",
          "name": "",
          "type": "address"
        }
      ],
      "stateMutability": "view",
      "type": "function",
      "constant": true
    },
    {
      "inputs": [
        {
          "internalType": "uint256",
          "name": "",
          "type": "uint256"
        }
      ],
      "name": "profiles",
      "outputs": [
        {
          "internalType": "uint256",
          "name": "id",
          "type": "uint256"
        },
        {
          "internalType": "bytes32",
          "name": "username",
          "type": "bytes32"
        }
      ],
      "stateMutability": "view",
      "type": "function",
      "constant": true
    },
    {
      "inputs": [
        {
          "internalType": "address",
          "name": "_controllerAddr",
          "type": "address"
        }
      ],
      "name": "setControllerAddr",
      "outputs": [],
      "stateMutability": "nonpayable",
      "type": "function"
    },
    {
      "inputs": [
        {
          "internalType": "address",
          "name": "_newOwner",
          "type": "address"
        }
      ],
      "name": "transferOwnership",
      "outputs": [],
      "stateMutability": "nonpayable",
      "type": "function"
    },
    {
      "inputs": [
        {
          "internalType": "bytes32",
          "name": "_username",
          "type": "bytes32"
        }
      ],
      "name": "createUser",
      "outputs": [
        {
          "internalType": "uint256",
          "name": "",
          "type": "uint256"
        }
      ],
      "stateMutability": "nonpayable",
      "type": "function"
    }
  ],
  "bytecode": "0x6080604052600060035534801561001557600080fd5b50336000806101000a81548173ffffffffffffffffffffffffffffffffffffffff021916908373ffffffffffffffffffffffffffffffffffffffff16021790555061066c806100656000396000f3fe608060405234801561001057600080fd5b50600436106100625760003560e01c80636981fa7d146100675780639c675eaa14610083578063abf7bfd8146100a1578063c36fe3d6146100d1578063ee255c5714610102578063f2fde38b14610120575b600080fd5b610081600480360381019061007c919061043f565b61013c565b005b61008b6101d8565b604051610098919061047b565b60405180910390f35b6100bb60048036038101906100b691906104cc565b6101fc565b6040516100c89190610512565b60405180910390f35b6100eb60048036038101906100e69190610559565b6102bd565b6040516100f9929190610595565b60405180910390f35b61010a6102e1565b604051610117919061047b565b60405180910390f35b61013a6004803603810190610135919061043f565b610307565b005b60008054906101000a900473ffffffffffffffffffffffffffffffffffffffff1673ffffffffffffffffffffffffffffffffffffffff163373ffffffffffffffffffffffffffffffffffffffff161461019457600080fd5b80600160006101000a81548173ffffffffffffffffffffffffffffffffffffffff021916908373ffffffffffffffffffffffffffffffffffffffff16021790555050565b60008054906101000a900473ffffffffffffffffffffffffffffffffffffffff1681565b6000600160009054906101000a900473ffffffffffffffffffffffffffffffffffffffff1673ffffffffffffffffffffffffffffffffffffffff163373ffffffffffffffffffffffffffffffffffffffff161461025857600080fd5b6003600081548092919061026b906105ed565b9190505550604051806040016040528060035481526020018381525060026000600354815260200190815260200160002060008201518160000155602082015181600101559050506003549050919050565b60026020528060005260406000206000915090508060000154908060010154905082565b600160009054906101000a900473ffffffffffffffffffffffffffffffffffffffff1681565b60008054906101000a900473ffffffffffffffffffffffffffffffffffffffff1673ffffffffffffffffffffffffffffffffffffffff163373ffffffffffffffffffffffffffffffffffffffff161461035f57600080fd5b600073ffffffffffffffffffffffffffffffffffffffff168173ffffffffffffffffffffffffffffffffffffffff16141561039957600080fd5b806000806101000a81548173ffffffffffffffffffffffffffffffffffffffff021916908373ffffffffffffffffffffffffffffffffffffffff16021790555050565b600080fd5b600073ffffffffffffffffffffffffffffffffffffffff82169050919050565b600061040c826103e1565b9050919050565b61041c81610401565b811461042757600080fd5b50565b60008135905061043981610413565b92915050565b600060208284031215610455576104546103dc565b5b60006104638482850161042a565b91505092915050565b61047581610401565b82525050565b6000602082019050610490600083018461046c565b92915050565b6000819050919050565b6104a981610496565b81146104b457600080fd5b50565b6000813590506104c6816104a0565b92915050565b6000602082840312156104e2576104e16103dc565b5b60006104f0848285016104b7565b91505092915050565b6000819050919050565b61050c816104f9565b82525050565b60006020820190506105276000830184610503565b92915050565b610536816104f9565b811461054157600080fd5b50565b6000813590506105538161052d565b92915050565b60006020828403121561056f5761056e6103dc565b5b600061057d84828501610544565b91505092915050565b61058f81610496565b82525050565b60006040820190506105aa6000830185610503565b6105b76020830184610586565b9392505050565b7f4e487b7100000000000000000000000000000000000000000000000000000000600052601160045260246000fd5b60006105f8826104f9565b91507fffffffffffffffffffffffffffffffffffffffffffffffffffffffffffffffff82141561062b5761062a6105be565b5b60018201905091905056fea2646970667358221220747832de0645a1ef32d28a2e559daa8b80a470cbc96e4598f53ea7574907357d64736f6c63430008090033",
  "immutableReferences": {},
  "source": "// SPDX-License-Identifier: MIT\r\npragma solidity >=0.4.22 <0.9.0;\r\n\r\nimport '../util/BaseStorage.sol';\r\n\r\ncontract UserStorage is BaseStorage {\r\n  mapping(uint256 => Profile) public profiles;\r\n\r\n  struct Profile {\r\n    uint256 id;\r\n    bytes32 username;\r\n  }\r\n\r\n  uint256 latestUserId = 0;\r\n\r\n  function createUser(bytes32 _username)\r\n    public\r\n    onlyController\r\n    returns (uint256)\r\n  {\r\n    latestUserId++;\r\n\r\n    profiles[latestUserId] = Profile(latestUserId, _username);\r\n\r\n    return latestUserId;\r\n  }\r\n}\r\n",
  "sourcePath": "C:/Users/Karan/Code/EthereumProjects/twitter-dapp-2/smart-contracts/contracts/users/UserStorage.sol",
  "compiler": {
    "name": "solc",
    "version": "0.8.9+commit.e5eed63a.Emscripten.clang"
  },
  "schemaVersion": "3.4.1",
  "updatedAt": "2022-01-08T18:27:37.154Z",
  "networkType": "ethereum",
  "devdoc": {
    "kind": "dev",
    "methods": {},
    "version": 1
  },
  "userdoc": {
    "kind": "user",
    "methods": {},
    "version": 1
  }
}